{
  "_format": "hh-sol-artifact-1",
  "contractName": "AuditConsentRegistry",
  "sourceName": "contracts/AuditConsentRegistry.sol",
  "abi": [
    {
      "anonymous": false,
      "inputs": [
        {
          "indexed": true,
          "internalType": "string",
          "name": "requestId",
          "type": "string"
        },
        {
          "indexed": false,
          "internalType": "string",
          "name": "auditHash",
          "type": "string"
        },
        {
          "indexed": false,
          "internalType": "bool",
          "name": "consentGiven",
          "type": "bool"
        },
        {
          "indexed": false,
          "internalType": "string",
          "name": "purpose",
          "type": "string"
        },
        {
          "indexed": false,
          "internalType": "uint256",
          "name": "timestamp",
          "type": "uint256"
        },
        {
          "indexed": true,
          "internalType": "address",
          "name": "sender",
          "type": "address"
        }
      ],
      "name": "AuditRecorded",
      "type": "event"
    },
    {
      "inputs": [
        {
          "internalType": "string",
          "name": "requestId",
          "type": "string"
        }
      ],
      "name": "getAudit",
      "outputs": [
        {
          "components": [
            {
              "internalType": "string",
              "name": "requestId",
              "type": "string"
            },
            {
              "internalType": "string",
              "name": "auditHash",
              "type": "string"
            },
            {
              "internalType": "bool",
              "name": "consentGiven",
              "type": "bool"
            },
            {
              "internalType": "string",
              "name": "purpose",
              "type": "string"
            },
            {
              "internalType": "uint256",
              "name": "timestamp",
              "type": "uint256"
            },
            {
              "internalType": "address",
              "name": "sender",
              "type": "address"
            }
          ],
          "internalType": "struct AuditConsentRegistry.AuditRecord",
          "name": "",
          "type": "tuple"
        }
      ],
      "stateMutability": "view",
      "type": "function"
    },
    {
      "inputs": [
        {
          "internalType": "string",
          "name": "requestId",
          "type": "string"
        },
        {
          "internalType": "string",
          "name": "auditHash",
          "type": "string"
        },
        {
          "internalType": "bool",
          "name": "consentGiven",
          "type": "bool"
        },
        {
          "internalType": "string",
          "name": "purpose",
          "type": "string"
        }
      ],
      "name": "recordAudit",
      "outputs": [],
      "stateMutability": "nonpayable",
      "type": "function"
    },
    {
      "inputs": [],
      "name": "totalRecords",
      "outputs": [
        {
          "internalType": "uint256",
          "name": "",
          "type": "uint256"
        }
      ],
      "stateMutability": "view",
      "type": "function"
    }
  ],
  "bytecode": "0x608060405234801561001057600080fd5b5061112f806100206000396000f3fe608060405234801561001057600080fd5b50600436106100415760003560e01c8063125f8974146100465780639e0a494014610064578063af8ae7fd14610094575b600080fd5b61004e6100b0565b60405161005b9190610751565b60405180910390f35b61007e600480360381019061007991906107db565b6100bd565b60405161008b91906109ba565b60405180910390f35b6100ae60048036038101906100a99190610a08565b61038e565b005b6000600180549050905090565b6100c56106ea565b60008084846040516100d8929190610b10565b9081526020016040518091039020600401540361012a576040517f08c379a000000000000000000000000000000000000000000000000000000000815260040161012190610b86565b60405180910390fd5b6000838360405161013c929190610b10565b90815260200160405180910390206040518060c001604052908160008201805461016590610bd5565b80601f016020809104026020016040519081016040528092919081815260200182805461019190610bd5565b80156101de5780601f106101b3576101008083540402835291602001916101de565b820191906000526020600020905b8154815290600101906020018083116101c157829003601f168201915b505050505081526020016001820180546101f790610bd5565b80601f016020809104026020016040519081016040528092919081815260200182805461022390610bd5565b80156102705780601f1061024557610100808354040283529160200191610270565b820191906000526020600020905b81548152906001019060200180831161025357829003601f168201915b505050505081526020016002820160009054906101000a900460ff161515151581526020016003820180546102a490610bd5565b80601f01602080910402602001604051908101604052809291908181526020018280546102d090610bd5565b801561031d5780601f106102f25761010080835404028352916020019161031d565b820191906000526020600020905b81548152906001019060200180831161030057829003601f168201915b50505050508152602001600482015481526020016005820160009054906101000a900473ffffffffffffffffffffffffffffffffffffffff1673ffffffffffffffffffffffffffffffffffffffff1673ffffffffffffffffffffffffffffffffffffffff1681525050905092915050565b600087879050116103d4576040517f08c379a00000000000000000000000000000000000000000000000000000000081526004016103cb90610c52565b60405180910390fd5b6000858590501161041a576040517f08c379a000000000000000000000000000000000000000000000000000000000815260040161041190610cbe565b60405180910390fd5b6000806000898960405161042f929190610b10565b9081526020016040518091039020600401541490506040518060c0016040528089898080601f016020809104026020016040519081016040528093929190818152602001838380828437600081840152601f19601f82011690508083019250505050505050815260200187878080601f016020809104026020016040519081016040528093929190818152602001838380828437600081840152601f19601f820116905080830192505050505050508152602001851515815260200184848080601f016020809104026020016040519081016040528093929190818152602001838380828437600081840152601f19601f8201169050808301925050505050505081526020014281526020013373ffffffffffffffffffffffffffffffffffffffff1681525060008989604051610567929190610b10565b9081526020016040518091039020600082015181600001908161058a9190610eb9565b5060208201518160010190816105a09190610eb9565b5060408201518160020160006101000a81548160ff02191690831515021790555060608201518160030190816105d69190610eb9565b506080820151816004015560a08201518160050160006101000a81548173ffffffffffffffffffffffffffffffffffffffff021916908373ffffffffffffffffffffffffffffffffffffffff160217905550905050801561067057600188889091806001815401808255809150506001900390600052602060002001600090919290919290919290919250918261066e929190610f96565b505b3373ffffffffffffffffffffffffffffffffffffffff168888604051610697929190610b10565b60405180910390207f3c55266c8d93f38a3fd246430fb44378c63865027914114e77ed2b1c0af3be3b8888888888426040516106d8969594939291906110a2565b60405180910390a35050505050505050565b6040518060c0016040528060608152602001606081526020016000151581526020016060815260200160008152602001600073ffffffffffffffffffffffffffffffffffffffff1681525090565b6000819050919050565b61074b81610738565b82525050565b60006020820190506107666000830184610742565b92915050565b600080fd5b600080fd5b600080fd5b600080fd5b600080fd5b60008083601f84011261079b5761079a610776565b5b8235905067ffffffffffffffff8111156107b8576107b761077b565b5b6020830191508360018202830111156107d4576107d3610780565b5b9250929050565b600080602083850312156107f2576107f161076c565b5b600083013567ffffffffffffffff8111156108105761080f610771565b5b61081c85828601610785565b92509250509250929050565b600081519050919050565b600082825260208201905092915050565b60005b83811015610862578082015181840152602081019050610847565b60008484015250505050565b6000601f19601f8301169050919050565b600061088a82610828565b6108948185610833565b93506108a4818560208601610844565b6108ad8161086e565b840191505092915050565b60008115159050919050565b6108cd816108b8565b82525050565b6108dc81610738565b82525050565b600073ffffffffffffffffffffffffffffffffffffffff82169050919050565b600061090d826108e2565b9050919050565b61091d81610902565b82525050565b600060c0830160008301518482036000860152610940828261087f565b9150506020830151848203602086015261095a828261087f565b915050604083015161096f60408601826108c4565b5060608301518482036060860152610987828261087f565b915050608083015161099c60808601826108d3565b5060a08301516109af60a0860182610914565b508091505092915050565b600060208201905081810360008301526109d48184610923565b905092915050565b6109e5816108b8565b81146109f057600080fd5b50565b600081359050610a02816109dc565b92915050565b60008060008060008060006080888a031215610a2757610a2661076c565b5b600088013567ffffffffffffffff811115610a4557610a44610771565b5b610a518a828b01610785565b9750975050602088013567ffffffffffffffff811115610a7457610a73610771565b5b610a808a828b01610785565b95509550506040610a938a828b016109f3565b935050606088013567ffffffffffffffff811115610ab457610ab3610771565b5b610ac08a828b01610785565b925092505092959891949750929550565b600081905092915050565b82818337600083830152505050565b6000610af78385610ad1565b9350610b04838584610adc565b82840190509392505050565b6000610b1d828486610aeb565b91508190509392505050565b600082825260208201905092915050565b7f7265636f7264206e6f7420666f756e6400000000000000000000000000000000600082015250565b6000610b70601083610b29565b9150610b7b82610b3a565b602082019050919050565b60006020820190508181036000830152610b9f81610b63565b9050919050565b7f4e487b7100000000000000000000000000000000000000000000000000000000600052602260045260246000fd5b60006002820490506001821680610bed57607f821691505b602082108103610c0057610bff610ba6565b5b50919050565b7f7265717565737449642072657175697265640000000000000000000000000000600082015250565b6000610c3c601283610b29565b9150610c4782610c06565b602082019050919050565b60006020820190508181036000830152610c6b81610c2f565b9050919050565b7f6175646974486173682072657175697265640000000000000000000000000000600082015250565b6000610ca8601283610b29565b9150610cb382610c72565b602082019050919050565b60006020820190508181036000830152610cd781610c9b565b9050919050565b7f4e487b7100000000000000000000000000000000000000000000000000000000600052604160045260246000fd5b60008190508160005260206000209050919050565b60006020601f8301049050919050565b600082821b905092915050565b600060088302610d6f7fffffffffffffffffffffffffffffffffffffffffffffffffffffffffffffffff82610d32565b610d798683610d32565b95508019841693508086168417925050509392505050565b6000819050919050565b6000610db6610db1610dac84610738565b610d91565b610738565b9050919050565b6000819050919050565b610dd083610d9b565b610de4610ddc82610dbd565b848454610d3f565b825550505050565b600090565b610df9610dec565b610e04818484610dc7565b505050565b5b81811015610e2857610e1d600082610df1565b600181019050610e0a565b5050565b601f821115610e6d57610e3e81610d0d565b610e4784610d22565b81016020851015610e56578190505b610e6a610e6285610d22565b830182610e09565b50505b505050565b600082821c905092915050565b6000610e9060001984600802610e72565b1980831691505092915050565b6000610ea98383610e7f565b9150826002028217905092915050565b610ec282610828565b67ffffffffffffffff811115610edb57610eda610cde565b5b610ee58254610bd5565b610ef0828285610e2c565b600060209050601f831160018114610f235760008415610f11578287015190505b610f1b8582610e9d565b865550610f83565b601f198416610f3186610d0d565b60005b82811015610f5957848901518255600182019150602085019450602081019050610f34565b86831015610f765784890151610f72601f891682610e7f565b8355505b6001600288020188555050505b505050505050565b600082905092915050565b610fa08383610f8b565b67ffffffffffffffff811115610fb957610fb8610cde565b5b610fc38254610bd5565b610fce828285610e2c565b6000601f831160018114610ffd5760008415610feb578287013590505b610ff58582610e9d565b86555061105d565b601f19841661100b86610d0d565b60005b828110156110335784890135825560018201915060208501945060208101905061100e565b86831015611050578489013561104c601f891682610e7f565b8355505b6001600288020188555050505b50505050505050565b60006110728385610b29565b935061107f838584610adc565b6110888361086e565b840190509392505050565b61109c816108b8565b82525050565b600060808201905081810360008301526110bd81888a611066565b90506110cc6020830187611093565b81810360408301526110df818587611066565b90506110ee6060830184610742565b97965050505050505056fea26469706673582212203fbb93fdfc8686ab2aa2bb17c2d48b95e92b9824e1f8d311cec807df2445f68c64736f6c63430008180033",
  "linkReferences": {},
  "deployedLinkReferences": {}
}